:020000020000FC
:1000000006C018951895DFB6E394DFBE18950FE08B
:1000100007BB08E208BB479A0FE90DBFFF2402E0C7
:1000200009BF789413E0B4D091E023E320D038E006
:100030004CD024E42FD0C49ABC9A38E061D0A7D029
:10004000C29AA5D0C298BC98C49894E02CEC0FD06A
:100050002EEB20D039E039D039E052D0F8BA00E3A5
:1000600005BF889504E008BB092E7BD0F8CFB49B70
:10007000F9CFBC9A16E499D0BC98939506E001504C
:10008000F1F70FE6B49B08940A95E1F758F79395BA
:10009000B49BE8CF18E003D01A95E9F708952795A7
:1000A000BC9A000008F4BC980CE10A95F1F7BC98E2
:1000B0000895BC9A0000BC9804E00150F1F7B4998F
:1000C000089401E10A95F1F708950024F0E0E3E6D1
:1000D00018E0EFDF0FB7279500250170102E000FF5
:1000E000000F000F0026000F0026169407941A95A3
:1000F00081F721933A9561F7002009F0C29A08959B
:10010000F0E0E3E6A190D0E0C0E65BD0099029D012
:100110002A95E1F7B29A11E03BD0B29A12E138D0B9
:100120003A9581F7C2980895AF93BF934F932F925A
:10013000C09AC1984AE0B2E0202EA3E1AA95F1F757
:100140002A94D9F7A3E0A6BBBA95B1F74A9599F7D7
:100150001A9581F7C098C1982F904F91BF91AF9198
:1001600008950F920F931F93002021F404E119E1E9
:10017000039402C00AE019E1D7DF15E009D00A9420
:10018000C9F71BE005D01F910F910F90089519E05A
:100190000F93EE24F2BE04E003BF00E205BF889592
:1001A000E116D8F3F3BE0F91089516BFF2BE03E037
:1001B0000FBD0AE003BF00E205BF8895F3BEFFBC98
:1001C00008950F921F92AF920F93222704E61124F5
:1001D000A01618F0A01A1394FBCF112021F40130BF
:1001E00011F0222311F0199223950A3001E079F3DE
:1001F0000AE068F7C21B0F91AF901F900F9008950F
:00000001FF
